{
  "_format": "hh3-artifact-1",
  "contractName": "DocumentRegistry",
  "sourceName": "contracts/DocumentRegistry.sol",
  "abi": [
    {
      "anonymous": false,
      "inputs": [
        {
          "indexed": true,
          "internalType": "uint256",
          "name": "id",
          "type": "uint256"
        },
        {
          "indexed": true,
          "internalType": "address",
          "name": "owner",
          "type": "address"
        },
        {
          "indexed": false,
          "internalType": "string",
          "name": "category",
          "type": "string"
        },
        {
          "indexed": false,
          "internalType": "string",
          "name": "authors",
          "type": "string"
        },
        {
          "indexed": false,
          "internalType": "uint256",
          "name": "deadline",
          "type": "uint256"
        },
        {
          "indexed": false,
          "internalType": "string",
          "name": "docHash",
          "type": "string"
        }
      ],
      "name": "DocumentUploaded",
      "type": "event"
    },
    {
      "inputs": [
        {
          "internalType": "uint256",
          "name": "",
          "type": "uint256"
        }
      ],
      "name": "documents",
      "outputs": [
        {
          "internalType": "uint256",
          "name": "id",
          "type": "uint256"
        },
        {
          "internalType": "string",
          "name": "docHash",
          "type": "string"
        },
        {
          "internalType": "address",
          "name": "owner",
          "type": "address"
        },
        {
          "internalType": "string",
          "name": "category",
          "type": "string"
        },
        {
          "internalType": "string",
          "name": "authors",
          "type": "string"
        },
        {
          "internalType": "uint256",
          "name": "deadline",
          "type": "uint256"
        },
        {
          "internalType": "uint256",
          "name": "uploadTimestamp",
          "type": "uint256"
        }
      ],
      "stateMutability": "view",
      "type": "function"
    },
    {
      "inputs": [],
      "name": "getTotalDocuments",
      "outputs": [
        {
          "internalType": "uint256",
          "name": "",
          "type": "uint256"
        }
      ],
      "stateMutability": "view",
      "type": "function"
    },
    {
      "inputs": [
        {
          "internalType": "address",
          "name": "_owner",
          "type": "address"
        }
      ],
      "name": "getDocumentsByOwner",
      "outputs": [
        {
          "internalType": "uint256[]",
          "name": "",
          "type": "uint256[]"
        }
      ],
      "stateMutability": "view",
      "type": "function"
    },
    {
      "inputs": [
        {
          "internalType": "string",
          "name": "_category",
          "type": "string"
        }
      ],
      "name": "getDocumentsByCategory",
      "outputs": [
        {
          "internalType": "uint256[]",
          "name": "",
          "type": "uint256[]"
        }
      ],
      "stateMutability": "view",
      "type": "function"
    },
    {
      "inputs": [
        {
          "internalType": "string",
          "name": "_docHash",
          "type": "string"
        },
        {
          "internalType": "string",
          "name": "_category",
          "type": "string"
        },
        {
          "internalType": "string",
          "name": "_authors",
          "type": "string"
        },
        {
          "internalType": "uint256",
          "name": "_deadline",
          "type": "uint256"
        }
      ],
      "name": "uploadDocument",
      "outputs": [],
      "stateMutability": "nonpayable",
      "type": "function"
    }
  ],
  "bytecode": "0x6080604052348015600e575f5ffd5b506106ae8061001c5f395ff3fe608060405234801561000f575f5ffd5b506004361061003f575f3560e01c80632f6aeff014610043578063c2ed2b0514610058578063e90e7ad414610086575b5f5ffd5b6100566100513660046103df565b610096565b005b61006b61006636600461044d565b6101f2565b60405161007d96959493929190610492565b60405180910390f35b5f5460405190815260200161007d565b5f8351116100ea5760405162461bcd60e51b815260206004820152601d60248201527f446f63756d656e7420686173682063616e6e6f7420626520656d707479000000604482015260640160405180910390fd5b5f805490806100f8836104e1565b90915550505f80546040805160c0810182528281526020808201888152338385015260608301889052608083018790524260a08401528486526001918290529290942081518155915192939092908201906101539082610589565b5060408201516002820180546001600160a01b0319166001600160a01b039092169190911790556060820151600382019061018e9082610589565b506080820151816004015560a08201518160050155905050336001600160a01b0316817fcc7763269d8f0afe3be0eec9ab4e7c91e9d1be34b3254bab915d3616af3603fb8585886040516101e493929190610644565b60405180910390a350505050565b600160208190525f91825260409091208054918101805461021290610505565b80601f016020809104026020016040519081016040528092919081815260200182805461023e90610505565b80156102895780601f1061026057610100808354040283529160200191610289565b820191905f5260205f20905b81548152906001019060200180831161026c57829003601f168201915b505050600284015460038501805494956001600160a01b039092169491935091506102b390610505565b80601f01602080910402602001604051908101604052809291908181526020018280546102df90610505565b801561032a5780601f106103015761010080835404028352916020019161032a565b820191905f5260205f20905b81548152906001019060200180831161030d57829003601f168201915b5050505050908060040154908060050154905086565b634e487b7160e01b5f52604160045260245ffd5b5f82601f830112610363575f5ffd5b813567ffffffffffffffff81111561037d5761037d610340565b604051601f8201601f19908116603f0116810167ffffffffffffffff811182821017156103ac576103ac610340565b6040528181528382016020018510156103c3575f5ffd5b816020850160208301375f918101602001919091529392505050565b5f5f5f606084860312156103f1575f5ffd5b833567ffffffffffffffff811115610407575f5ffd5b61041386828701610354565b935050602084013567ffffffffffffffff81111561042f575f5ffd5b61043b86828701610354565b93969395505050506040919091013590565b5f6020828403121561045d575f5ffd5b5035919050565b5f81518084528060208401602086015e5f602082860101526020601f19601f83011685010191505092915050565b86815260c060208201525f6104aa60c0830188610464565b6001600160a01b038716604084015282810360608401526104cb8187610464565b6080840195909552505060a00152949350505050565b5f600182016104fe57634e487b7160e01b5f52601160045260245ffd5b5060010190565b600181811c9082168061051957607f821691505b60208210810361053757634e487b7160e01b5f52602260045260245ffd5b50919050565b601f82111561058457805f5260205f20601f840160051c810160208510156105625750805b601f840160051c820191505b81811015610581575f815560010161056e565b50505b505050565b815167ffffffffffffffff8111156105a3576105a3610340565b6105b7816105b18454610505565b8461053d565b6020601f8211600181146105e9575f83156105d25750848201515b5f19600385901b1c1916600184901b178455610581565b5f84815260208120601f198516915b8281101561061857878501518255602094850194600190920191016105f8565b508482101561063557868401515f19600387901b60f8161c191681555b50505050600190811b01905550565b606081525f6106566060830186610464565b846020840152828103604084015261066e8185610464565b969550505050505056fea26469706673582212207462e8b988c8fc037d384b3841e6e35f1218776bc71933668a083f5e2e3a449664736f6c634300081c0033",
  "linkReferences": {},
  "deployedLinkReferences": {},
  "immutableReferences": {},
  "inputSourceName": "project/contracts/DocumentRegistry.sol",
  "buildInfoId": "solc-0_8_28-008e9fbeb653bdaf8313dcb604bb120efdcb9dba"
}